S0150000746F67676C6550726F6A6563742E73726563B6
S11300000C9434000C9451000C9451000C94510045
S11300100C9451000C9451000C9451000C94510018
S11300200C9451000C9451000C9451000C94F60063
S11300300C9451000C9451000C9451000C945100F8
S11300400C9465000C9451000C9451000C945100D4
S11300500C9451000C9451000C9451000C945100D8
S11300600C9451000C94510011241FBECFEFD8E022
S1130070DEBFCDBF11E0A0E0B1E0EEEAF4E002C0E3
S113008005900D92A031B107D9F721E0A0E1B1E0CC
S113009001C01D92A132B207E1F70E94FB010C944A
S11300A055020C940000109210011092110110924C
S11300B012011092130114BC15BC81E085BD16BC5D
S11300C0EEE6F0E01082808308951F920F920FB63F
S11300D00F9211242F934F935F936F937F938F937A
S11300E09F93AF93BF93CF93DF93EF93FF9380914D
S11300F01C0190911D01A0911E01B0911F01019658
S1130100A11DB11D80931C0190931D01A0931E019C
S1130110B0931F0180911C0190911D01A0911E01BB
S1130120B0911F0182319A47A105B10508F44CC072
S113013010921C0110921D0110921E0110921F01B9
S1130140F894E1E8F0E08081887F8083C4E8D0E01F
S1130150488159818091180190911901A0911A0147
S1130160B0911B01DC019927882760E070E0842BA3
S1130170952BA62BB72B8093140190931501A09374
S11301801601B093170110921801109219011092E0
S11301901A0110921B01198218828091100190910A
S11301A01101A0911201B09113010196A11DB11D7D
S11301B08093100190931101A0931201B093130145
S11301C08081866080837894FF91EF91DF91CF9155
S11301D0BF91AF919F918F917F916F915F914F915B
S11301E02F910F900FBE0F901F9018951F920F9292
S11301F00FB60F9211242F938F939F93AF93BF93B6
S11302008091180190911901A0911A01B0911B01DC
S11302100196A11DB11D8093180190931901A0931B
S11302201A01B0931B018091180190911901A091BA
S11302301A01B0911B018F3F9F4FAF4FBF4F41F445
S1130240109218011092190110921A0110921B01B8
S1130250BF91AF919F918F912F910F900FBE0F90EF
S11302601F901895AC01F8946091140170911501D8
S1130270809116019091170178942AE00E9423023C
S11302800895E1EEF4E03197F1F700C0000098B171
S1130290907F98B998B18F70892B88B989EF90E0D5
S11302A00197F1F700C000004498E9EFF0E03197BE
S11302B0F1F700C00000449A89EF90E00197F1F74C
S11302C000C000004498E9EFF0E03197F1F700C076
S11302D000000895CF93C82F89EF90E00197F1F7BC
S11302E000C00000662311F0459A01C0459889EFCB
S11302F090E00197F1F700C00000289889EF90E0A2
S11303000197F1F700C000008C2F82958F700E9436
S1130310410181EE94E00197F1F700C000008C2FB9
S11303200E944101CF91089560E00E946A010895FE
S113033061E00E946A0108953D9A209A3C9A87B12F
S11303408F6087B985EA9EE00197F1F700C000004D
S113035044984598289880E094E00197F1F700C00C
S1130360000083E00E94410181EE94E00197F1F7DF
S113037000C0000083E00E94410181EE94E00197F7
S1130380F1F700C0000083E00E94410181EE94E097
S11303900197F1F700C0000082E00E94410188E269
S11303A00E9494011092200188E00E949401089513
S11303B080912001982F9460909320018C600E947A
S11303C09401089581E00E94940183ED90E30197E4
S11303D0F1F700C000000895CF93DF93EC0188810A
S11303E0882331F021960E94980189918111FBCFD5
S11303F0DF91CF9108950E949C010E94D8010E9430
S1130400E2010E94530078945F9A2FEF81EE94E00A
S1130410215080409040E1F700C000005F982FEF2A
S113042081EE94E0215080409040E1F700C000004C
S113043080E091E00E9432010E94E20180E091E0BC
S11304400E94EC01E1CFBB27FA01A62F62177105C8
S113045081059105330B30FB66F0AA27660F771FE1
S1130460881F991FAA1FA21710F0A21B639538506A
S1130470A9F7A05DAA3308F0A95DA19336F7B111DD
S1130480B1931082CA010C944502DC01FC01672F70
S113049071917723E1F7329704C07C916D93708357
S11104A06291AE17BF07C8F30895F894FFCF1A
S11304AE6172656B20313233343541424344450029
S9030000FC
