S0150000746F67676C6550726F6A6563742E73726563B6
S11300000C9434000C94A3000C9451000C945100F3
S11300100C9451000C9451000C9451000C94510018
S11300200C9451000C9451000C9451000C94AD00AC
S11300300C9451000C9451000C9451000C945100F8
S11300400C945D000C9451000C9451000C945100DC
S11300500C9451000C9451000C9451000C945100D8
S11300600C9451000C94510011241FBECFEFD8E022
S1130070DEBFCDBF11E0A0E0B1E0EEEFF3E002C0DF
S113008005900D92AA31B107D9F721E0AAE1B1E0B8
S113009001C01D92A532B207E1F70E94A1010C94A0
S11300A0FD010C94000014BC15BC83E085BDEEE694
S11300B0F0E0108281E0808308951F920F920FB6C2
S11300C00F9211248F939F93AF93BF9380911E013E
S11300D090911F01A0912001B09121010196A11DD1
S11300E0B11D80931E0190931F01A0932001B09332
S11300F02101BF91AF919F918F910F900FBE0F90EF
S11301001F901895E9E6F0E0108282E080831DBA22
S113011091E09DBB109280009EE09093810024E0CA
S113012030E030938900209388001092850010926B
S1130130840080936F00B19A80E091E09093230152
S11301408093220108951F920F920FB60F921124EB
S11301500F900FBE0F901F9018951F920F920FB61D
S11301600F9211248F939F93AF93BF9384E090E0F9
S1130170909389008093880080911A0190911B01CB
S1130180A0911C01B0911D010196A11DB11D809388
S11301901A0190931B01A0931C01B0931D01BF9100
S11301A0AF919F918F910F900FBE0F901F90189554
S11301B0AC01F89460911A0170911B0180911C01AB
S11301C090911D0178942AE00E94CB010895E1EEFC
S11301D0F4E03197F1F700C0000098B1907F98B92E
S11301E098B18F70892B88B989EF90E00197F1F766
S11301F000C000004498E9EFF0E03197F1F700C047
S11302000000449A89EF90E00197F1F700C00000E4
S11302104498E9EFF0E03197F1F700C00000089549
S1130220CF93C82F89EF90E00197F1F700C0000049
S1130230662311F0459A01C0459889EF90E0019733
S1130240F1F700C00000289889EF90E00197F1F7DA
S113025000C000008C2F82958F700E94E70081EE11
S113026094E00197F1F700C000008C2F0E94E70092
S1130270CF91089560E00E941001089561E00E940A
S1130280100108953D9A209A3C9A87B18F6087B9EE
S113029085EA9EE00197F1F700C000004498459874
S11302A0289880E094E00197F1F700C0000083E013
S11302B00E94E70081EE94E00197F1F700C000008E
S11302C083E00E94E70081EE94E00197F1F700C01B
S11302D0000083E00E94E70081EE94E00197F1F7CB
S11302E000C0000082E00E94E70088E20E943A0118
S11302F01092240188E00E943A010895809124011B
S1130300982F9460909324018C600E943A01089580
S113031081E00E943A0183ED90E30197F1F700C078
S113032000000895CF93DF93EC018881882331F096
S113033021960E943E0189918111FBCFDF91CF91DB
S113034008950E9442010E947E010E9488010E9439
S113035053000E94820078945F9A2FEF81EE94E01C
S1130360215080409040E1F700C000005F982FEFDB
S113037081EE94E0215080409040E1F700C00000FD
S11303808BE091E00E94D8000E9488018BE091E00C
S11303900E949201E1CFBB27FA01A62F62177105D3
S11303A081059105330B30FB66F0AA27660F771F92
S11303B0881F991FAA1FA21710F0A21B639538501B
S11303C0A9F7A05DAA3308F0A95DA19336F7B1118E
S11303D0B1931082CA010C94ED01DC01FC01672F7A
S11303E071917723E1F7329704C07C916D93708308
S11103F06291AE17BF07C8F30895F894FFCFCB
S11303FEFFFFFFFF000100000000006172656B202B
S10D040E3132333435414243444592
S9030000FC
