:100000000C9434000C9451000C9451000C94510049
:100010000C9451000C9451000C9451000C9451001C
:100020000C9451000C9451000C9451000C9451000C
:100030000C9451000C9451000C9451000C945100FC
:100040000C9451000C9451000C9451000C945100EC
:100050000C9451000C9451000C9451000C945100DC
:100060000C9451000C94510011241FBECFEFD8E026
:10007000DEBFCDBF11E0A0E0B1E0E2E0F3E002C0FE
:1000800005900D92A031B107D9F721E0A0E1B1E0D0
:1000900001C01D92A531B207E1F70E9428010C941E
:1000A0007F010C940000AC0180911001909111012E
:1000B000A0911201B0911301BC01CD016F5F7F4F80
:1000C0008F4F9F4F60931001709311018093120125
:1000D000909313012AE00E944D010895E1EEF4E0AF
:1000E0003197F1F700C0000098B1907F98B998B1AE
:1000F0008F70892B88B989EF90E00197F1F700C0E4
:1001000000004498E9EFF0E03197F1F700C00000FB
:10011000449A89EF90E00197F1F700C000004498FD
:10012000E9EFF0E03197F1F700C000000895CF93B8
:10013000C82F89EF90E00197F1F700C00000662317
:1001400011F0459A01C0459889EF90E00197F1F7C9
:1001500000C00000289889EF90E00197F1F700C0F7
:1001600000008C2F82958F700E946E0081EE94E0CB
:100170000197F1F700C000008C2F0E946E00CF9114
:10018000089560E00E949700089561E00E94970042
:1001900008953D9A209A3C9A87B18F6087B985EA85
:1001A0009EE00197F1F700C0000044984598289818
:1001B00080E094E00197F1F700C0000083E00E9426
:1001C0006E0081EE94E00197F1F700C0000083E03B
:1001D0000E946E0081EE94E00197F1F700C00000EC
:1001E00083E00E946E0081EE94E00197F1F700C079
:1001F000000082E00E946E0088E20E94C10010921E
:10020000140188E00E94C100089580911401982F84
:100210009460909314018C600E94C100089581E065
:100220000E94C10083ED90E30197F1F700C0000048
:100230000895CF93DF93EC018881882331F02196D4
:100240000E94C50089918111FBCFDF91CF91089564
:100250000E94C9000E9405010E940F015F9A2FEFC2
:1002600089E698E1215080409040E1F700C000000D
:100270005F982FEF89E698E1215080409040E1F7A8
:1002800000C0000080E091E00E9453000E940F0136
:1002900080E091E00E941901E1CFBB27FA01A62F6F
:1002A0006217710581059105330B30FB66F0AA27B3
:1002B000660F771F881F991FAA1FA21710F0A21B95
:1002C00063953850A9F7A05DAA3308F0A95DA19302
:1002D00036F7B111B1931082CA010C946F01DC01A1
:1002E000FC01672F71917723E1F7329704C07C916D
:1002F0006D9370836291AE17BF07C8F30895F894A9
:02030000FFCF2D
:100302006172656B203132333435414243444500DA
:00000001FF
