:100000000C9434000C9451000C9451000C94510049
:100010000C9451000C9451000C9451000C9451001C
:100020000C9451000C9451000C9451000C9451000C
:100030000C9451000C9451000C9451000C945100FC
:100040000C9451000C9451000C9451000C945100EC
:100050000C9451000C9451000C9451000C945100DC
:100060000C9451000C94510011241FBECFEFD8E026
:10007000DEBFCDBF11E0A0E0B1E0EAE0F3E002C0F6
:1000800005900D92A030B107D9F721E0A0E0B1E0D2
:1000900001C01D92AF31B207E1F70E9420010C941C
:1000A00083010C94000014BC15BC83E085BDEEE612
:1000B000F0E0108281E0808308952AE0AC0160E3E3
:1000C00071E48BEA90E00E9451010895E1EEF4E0C2
:1000D0003197F1F700C0000098B1907F98B998B1BE
:1000E0008F70892B88B989EF90E00197F1F700C0F4
:1000F00000004498E9EFF0E03197F1F700C000000C
:10010000449A89EF90E00197F1F700C0000044980D
:10011000E9EFF0E03197F1F700C000000895CF93C8
:10012000C82F89EF90E00197F1F700C00000662327
:1001300011F0459A01C0459889EF90E00197F1F7D9
:1001400000C00000289889EF90E00197F1F700C007
:1001500000008C2F82958F700E94660081EE94E0E3
:100160000197F1F700C000008C2F0E946600CF912C
:10017000089560E00E948F00089561E00E948F0062
:1001800008953D9A209A3C9A87B18F6087B985EA95
:100190009EE00197F1F700C0000044984598289828
:1001A00080E094E00197F1F700C0000083E00E9436
:1001B000660081EE94E00197F1F700C0000083E053
:1001C0000E94660081EE94E00197F1F700C0000004
:1001D00083E00E94660081EE94E00197F1F700C091
:1001E000000082E00E94660088E20E94B90010923E
:1001F000000188E00E94B900089580910001982FC5
:100200009460909300018C600E94B900089581E091
:100210000E94B90083ED90E30197F1F700C0000060
:100220000895CF93DF93EC018881882331F02196E4
:100230000E94BD0089918111FBCFDF91CF9108957C
:100240002FEF81EE94E0215080409040E1F700C014
:1002500000000E94530078940E94C1000E94FD009B
:100260000E9407012FEF83ED90E3215080409040E2
:10027000E1F700C0000080E191E00E945D0081E0B4
:1002800091E00E9411012FEF89EF90E02150804012
:100290009040E1F700C0000080E191E00E94110170
:1002A000E1CFBB27FA01A62F6217710581059105E1
:1002B000330B30FB66F0AA27660F771F881F991F44
:1002C000AA1FA21710F0A21B63953850A9F7A05DD2
:1002D000AA3308F0A95DA19336F7B111B19310824A
:1002E000CA010C947301DC01FC01672F7191772323
:1002F000E1F7329704C07C916D9370836291AE17E1
:0A030000BF07C8F30895F894FFCF7B
:00000001FF
