:100000000C9434000C9451000C9451000C94510049
:100010000C9451000C9451000C9451000C9451001C
:100020000C9451000C9451000C9451000C9451000C
:100030000C9451000C9451000C9451000C945100FC
:100040000C9451000C9451000C9451000C945100EC
:100050000C9451000C9451000C9451000C945100DC
:100060000C9451000C94510011241FBECFEFD8E026
:10007000DEBFCDBF11E0A0E0B1E0EEE5F2E002C0EE
:1000800005900D92A231B107D9F721E0A2E1B1E0CC
:1000900001C01D92A331B207E1F70E940D010C943B
:1000A0002D010C940000E1EEF4E03197F1F700C06F
:1000B000000098B1907F98B998B18F70892B88B95A
:1000C00089EF90E00197F1F700C000004498E9EF54
:1000D000F0E03197F1F700C00000449A89EF90E01A
:1000E0000197F1F700C000004498E9EFF0E0319784
:1000F000F1F700C000000895CF93C82F89EF90E07A
:100100000197F1F700C00000662311F0459A01C085
:10011000459889EF90E00197F1F700C0000028981A
:1001200089EF90E00197F1F700C000008C2F8295D5
:100130008F700E94530081EE94E00197F1F700C0A8
:1001400000008C2F0E945300CF91089560E00E9420
:100150007C00089561E00E947C0008953D9A209AF9
:100160003C9A87B18F6087B985EA9EE00197F1F7E5
:1001700000C0000044984598289880E094E00197DA
:10018000F1F700C0000083E00E94530081EE94E08C
:100190000197F1F700C0000083E00E94530081EE58
:1001A00094E00197F1F700C0000083E00E94530043
:1001B00081EE94E00197F1F700C0000082E00E9418
:1001C000530088E20E94A6001092120188E00E946B
:1001D000A600089580911201982F946090931201C7
:1001E0008C600E94A600089581E00E94A60083ED25
:1001F00090E30197F1F700C000000895CF93DF93DB
:10020000EC018881882331F021960E94AA0089910F
:100210008111FBCFDF91CF9108950E94AE000E9423
:10022000EA000E94F40080E091E00E94FE00579AEC
:100230005F9A2FEF89E698E1215080409040E1F7E6
:1002400000C000005F982FEF89E698E121508040C0
:0E0250009040E1F700C00000EBCFF894FFCF24
:10025E0031323334353637383930414243444546EE
:02026E0000008E
:00000001FF
