S0150000746F67676C6550726F6A6563742E73726563B6
S11300000C9456000C9473000C9473000C947300BD
S11300100C9473000C9473000C9473000C94730090
S11300200C9473000C9473000C9473000C94730080
S11300300C9473000C9473000C9473000C94730070
S11300400C9473000C9473000C9473000C94730060
S11300500C9473000C9473000C9473000C94730050
S11300600C9473000C9473000C9473000C94730040
S11300700C9473000C9473000C9473000C94730030
S11300800C9473000C9473000C9473000C94730020
S11300900C9473000C9473000C9473000C94730010
S11300A00C9473000C9473000C94730011241FBE01
S11300B0CFEFDAE0DEBFCDBF11E0A0E0B1E0E8E0D1
S11300C0F3E002C005900D92A630B107D9F721E004
S11300D0A6E0B1E001C01D92A730B207E1F70E948B
S11300E062010C9482010C940000E1EEF4E031977B
S11300F0F1F700C000009BB1907F9BB99BB18F705A
S1130100892B8BB989EF90E00197F1F700C00000CB
S11301104698E9EFF0E03197F1F700C00000469A05
S113012089EF90E00197F1F700C000004698E9EFED
S1130130F0E03197F1F700C00000F4E6FA95F1F72A
S11301400895CF93C82F89EF90E00197F1F700C08D
S11301500000662311F05C9A01C05C9889EF90E07E
S11301600197F1F700C000005F9889EF90E00197D4
S1130170F1F700C000008C2F82958F700E947500EB
S113018081EE94E00197F1F700C000008C2F0E94EB
S11301907500CF91089560E00E94A100089561E088
S11301A00E94A1000895549A579A3E9A8AB18F608A
S11301B08AB983ED90E30197F1F700C000004698F7
S11301C089EF90E00197F1F700C000005C9889EF97
S11301D090E00197F1F700C000005F9889EF90E08C
S11301E00197F1F700C0000080E094E00197F1F777
S11301F000C0000083E00E94750087E893E1019746
S1130200F1F700C0000083E00E94750087E893E1E5
S11302100197F1F700C0000083E00E94750087E8B1
S113022093E10197F1F700C0000082E00E9475009D
S113023087E893E10197F1F700C0000088E20E948B
S1130240CB0087E893E10197F1F700C0000010921A
S1130250060188E00E94CB00089581EE94E00197A6
S1130260F1F700C0000080910601982F94609093EC
S113027006018C600E94CB00089581EE94E0019702
S1130280F1F700C0000081E00E94CB0083ED90E311
S11302900197F1F700C000000895CF93DF93EC01BC
S11302A08881882361F083EF91E00197F1F700C022
S11302B0000089910E94CF0088818111F4CFDF91E1
S11302C0CF9108950E94D3000E942D010E943D0108
S11302D080E091E00E944D01249A2C9A2FEF89E648
S11302E098E1215080409040E1F700C000002C9834
S11302F02FEF89E698E1215080409040E1F700C05B
S10B03000000EBCFF894FFCFDD
S10903087465737400002B
S9030000FC
