S0150000746F67676C6550726F6A6563742E73726563B6
S11300000C9434000C9482000C9451000C94510014
S11300100C9451000C9451000C9451000C94510018
S11300200C9451000C9451000C9451000C94080150
S11300300C9451000C9451000C9451000C945100F8
S11300400C945D000C9451000C9451000C945100DC
S11300500C9451000C9451000C9451000C945100D8
S11300600C9451000C94510011241FBECFEFD8E022
S1130070DEBFCDBF11E0A0E0B1E0ECE4F7E002C0E8
S113008005900D92A632B107D9F721E0A6E2B1E0BE
S113009001C01D92A333B207E1F70E944A030C94F6
S11300A0A4030C94000014BC15BC83E085BDEEE6EB
S11300B0F0E0108281E0808308951F920F920FB6C2
S11300C00F9211248F939F93AF93BF9380912C0130
S11300D090912D01A0912E01B0912F010196A11DA7
S11300E0B11D80932C0190932D01A0932E01B09308
S11300F02F01BF91AF919F918F910F900FBE0F90E1
S11301001F9018951F920F920FB60F9211240F9300
S11301101F932F933F934F935F936F937F938F938B
S11301209F93AF93BF93EF93FF9380912C01909192
S11301302D01A0912E01B0912F0126B5A89B05C0D9
S11301402F3F19F00196A11DB11DBA2FA92F982F89
S11301508827822B20911101222341F0ECE0F1E069
S1130160158287839087A187B2873FC0ECE0F1E0D6
S113017047815085618572858C019D01041B150B97
S1130180260B370B00831183228333838783908765
S1130190A187B287043611052105310530F51DBA52
S11301A0E1E0F1E04FEF5FEFBA01408351836283F6
S11301B0738321E02583268387839087A187B28771
S11301C0268181E090E002C0880F991F2A95E2F70A
S11301D00197909389008093880010928500109273
S11301E08400F0933101E0933001FF91EF91BF91CE
S11301F0AF919F918F917F916F915F914F913F91BB
S11302002F911F910F910F900FBE0F901F90189573
S11302101F920F920FB60F921124CF92DF92EF929A
S1130220FF920F931F932F933F934F935F936F937B
S11302307F938F939F93AF93BF93EF93FF934091DB
S11302402C0150912D0160912E0170912F0126B542
S1130250A89B06C02F3F21F04F5F5F4F6F4F7F4F2A
S113026084E08093000180912B0191E0980F90939A
S11302702B0190912A0189130BC1762F652F542FDE
S113028044276A017B01C22A9701860110922B013F
S113029080910601882341F0E1E0F1E015820783B3
S11302A0108721873287F4C0E1E0F1E086818483FE
S11302B0478150856185728568017901C41AD50A20
S11302C0E60AF70AB701A601C082D182E282F3826C
S11302D0078310872187328790E1C91697E2D906F0
S11302E0E104F10408F046C0843108F043C08F5F94
S11302F0440F551F661F771F4031A7E25A07610557
S1130300710518F4843199F718C08131B0F4C12C07
S1130310D12C7601C394082E04C0CC0CDD1CEE1C39
S1130320FF1C0A94D2F7B1E0CB1AD108D09289000D
S1130330C092880010922A0114C0EFEFFFEFF093EF
S11303408900E0938800E1E0F0E090EF980F02C0AC
S1130350EE0FFF1F9A95E2F7E150E0932A01109205
S11303602B011DBAE1E0F1E0F0933101E09330019B
S1130370868346C0413395E759076105710508F442
S113038080C0823008F475C0815076956795579582
S113039047954133A5E75A076105710518F0813087
S11303A099F702C08131B0F4C12CD12C7601C394E9
S11303B0082E04C0CC0CDD1CEE1CFF1C0A94D2F7E2
S11303C0B1E0CB1AD108D0928900C0928800109273
S11303D02A0114C0EFEFFFEFF0938900E093880047
S11303E0E1E0F0E090EF980F02C0EE0FFF1F9A9546
S11303F0E2F7E150E0932A0110922B018093070168
S1130400E0913001F0913101E150F140E9F44133E0
S1130410A5E75A0761057105D8F18130C9F58DBB8F
S11304207695679557954795ECE0F1E040835183C5
S11304306283738307831087218732878583F093D0
S11304403101E093300124C080910C0190910D01A1
S1130450A0910E01B0910F0180319742A105B10521
S1130460B8F41DBA81E091E090933101809330019A
S11304700FC0E0913001F0913101E150F14021F7DA
S1130480CCCF809130019091310181509140E1F6BF
S1130490FF91EF91BF91AF919F918F917F916F9158
S11304A05F914F913F912F911F910F91FF90EF908A
S11304B0DF90CF900F900FBE0F901F9018950F9361
S11304C01F93AC01F89400912C0110912D012091FF
S11304D02E0130912F0196B5A89B06C09F3F21F0B5
S11304E00F5F1F4F2F4F3F4F322F212F102F002709
S11304F0092B0093260110932701209328013093A0
S11305002901789460912601709127018091280136
S1130510909129012AE00E9472031F910F9108957E
S1130520E1EEF4E03197F1F700C0000098B1907F5C
S113053098B998B18F70892B88B989EF90E00197A9
S1130540F1F700C000004498E9EFF0E03197F1F7CB
S113055000C00000449A89EF90E00197F1F700C0D1
S113056000004498E9EFF0E03197F1F700C0000093
S11305700895CF93C82F89EF90E00197F1F700C059
S11305800000662311F0459A01C0459889EF90E078
S11305900197F1F700C00000289889EF90E00197D7
S11305A0F1F700C000008C2F82958F700E9490029A
S11305B081EE94E00197F1F700C000008C2F0E94B7
S11305C09002CF91089560E00E94B902089561E01D
S11305D00E94B90208953D9A209A3C9A87B18F608F
S11305E087B985EA9EE00197F1F700C000004498BE
S11305F04598289880E094E00197F1F700C0000046
S113060083E00E94900281EE94E00197F1F700C02C
S1130610000083E00E94900281EE94E00197F1F7DC
S113062000C0000083E00E94900281EE94E00197F4
S1130630F1F700C0000082E00E94900288E20E946C
S1130640E3021092320188E00E94E302089580914F
S11306503201982F9460909332018C600E94E302DF
S1130660089581E00E94E30283ED90E30197F1F79E
S113067000C000000895CF93DF93EC0188818823A4
S113068031F021960E94E70289918111FBCFDF911D
S1130690CF9108950E94EB020E9427030E94310328
S11306A00E94530078945F9A2FEF89E698E12150D5
S11306B080409040E1F700C000005F982FEF89E68A
S11306C098E1215080409040E1F700C0000087E1AC
S11306D091E00E945F020E94310387E191E00E9451
S11306E03B03E1CFBB27FA01A62F621771058105F1
S11306F09105330B30FB66F0AA27660F771F881F1E
S1130700991FAA1FA21710F0A21B63953850A9F7CE
S1130710A05DAA3308F0A95DA19336F7B111B19396
S11307201082CA010C949403DC01FC01672F7191BF
S11307307723E1F7329704C07C916D9370836291C3
S10F0740AE17BF07C8F30895F894FFCF6C
S113074C04FFFFFFFF00010100000000FFFFFFFF9B
S113075C000100000000006172656B2031323334FB
S109076C354142434445FF
S9030000FC
