S0150000746F67676C6550726F6A6563742E73726563B6
S11300000C9434000C9451000C9451000C94510045
S11300100C9451000C9451000C9451000C94510018
S11300200C9451000C9451000C9451000C94510008
S11300300C9451000C94EB000C9451000C9451005E
S11300400C946E000C9451000C9451000C945100CB
S11300500C9451000C9451000C9451000C945100D8
S11300600C9451000C94510011241FBECFEFD8E022
S1130070DEBFCDBF11E0A0E0B1E0E2E9F4E002C0F0
S113008005900D92A030B107D9F721E0A0E0B1E0CE
S113009001C01D92AC31B207E1F70E94F0010C944B
S11300A047020C940000F89414BC15BC81E085BD93
S11300B016BCEEE6F0E01082808310928000E1E846
S11300C0F0E0108296E090831092850010928400F4
S11300D0EFE6F0E010828083789408951F920F92E7
S11300E00FB60F9211242F934F935F936F937F93C7
S11300F08F939F93AF93BF93CF93DF93EF93FF932C
S11301008091080190910901A0910A01B0910B011D
S11301100196A11DB11D8093080190930901A0933C
S11301200A01B0930B018091080190910901A091FB
S11301300A01B0910B0182319A47A105B105C8F1BA
S1130140109208011092090110920A0110920B01F9
S1130150F894E1E8F0E08081887F8083C4E8D0E00F
S1130160488159818091040190910501A091060173
S1130170B0910701DC019927882760E070E0842BA7
S1130180952BA62BB72B8093000190930101A0938C
S11301900201B09303011092040110920501109220
S11301A0060110920701198218828081866080837B
S11301B07894FF91EF91DF91CF91BF91AF919F918F
S11301C08F917F916F915F914F912F910F900FBEFF
S11301D00F901F9018951F920F920FB60F92112433
S11301E02F938F939F93AF93BF938091040190912A
S11301F00501A0910601B09107010196A11DB11D51
S11302008093040190930501A0930601B093070124
S11302108091040190910501A0910601B09107011C
S11302208F3F9F4FAF4FBF4F41F410920401109284
S113023005011092060110920701BF91AF919F91A1
S11302408F912F910F900FBE0F901F901895AC01B6
S1130250F8946091000170910101809102019091E4
S1130260030178942AE00E9415020895E1EEF4E077
S11302703197F1F700C0000098B1907F98B998B118
S11302808F70892B88B989EF90E00197F1F700C04E
S113029000004498E9EFF0E03197F1F700C0000066
S11302A0449A89EF90E00197F1F700C00000449868
S11302B0E9EFF0E03197F1F700C000000895CF9323
S11302C0C82F89EF90E00197F1F700C00000662382
S11302D011F0459A01C0459889EF90E00197F1F734
S11302E000C00000289889EF90E00197F1F700C062
S11302F000008C2F82958F700E94360181EE94E06D
S11303000197F1F700C000008C2F0E943601CF91B5
S1130310089560E00E945F01089561E00E945F011A
S113032008953D9A209A3C9A87B18F6087B985EAEF
S11303309EE00197F1F700C0000044984598289882
S113034080E094E00197F1F700C0000083E00E9490
S1130350360181EE94E00197F1F700C0000083E0DC
S11303600E94360181EE94E00197F1F700C000008D
S113037083E00E94360181EE94E00197F1F700C01A
S1130380000082E00E94360188E20E9489011092F6
S11303900C0188E00E948901089580910C01982F36
S11303A0946090930C018C600E948901089581E00F
S11303B00E94890183ED90E30197F1F700C00000EA
S11303C00895CF93DF93EC018881882331F021963F
S11303D00E948D0189918111FBCFDF91CF91089506
S11303E02FEF81EE94E0215080409040E1F700C06F
S11303F000000E9491010E94CD010E94D7010E9439
S113040053002FEF83EC99E0215080409040E1F7B6
S113041000C000008DE091E00E9427010E94D701F6
S11304208DE091E00E94E101ECCFBB27FA01A62FF9
S11304306217710581059105330B30FB66F0AA271D
S1130440660F771F881F991FAA1FA21710F0A21BFF
S113045063953850A9F7A05DAA3308F0A95DA1936C
S113046036F7B111B1931082CA010C943702DC0142
S1130470FC01672F71917723E1F7329704C07C91D7
S11304806D9370836291AE17BF07C8F30895F89413
S1050490FFCF98
S9030000FC
