:100000000C9456000C9473000C9473000C947300C1
:100010000C9473000C9473000C9473000C94730094
:100020000C9473000C9473000C9473000C94730084
:100030000C9473000C9473000C9473000C94730074
:100040000C9473000C9473000C9473000C94730064
:100050000C9473000C9473000C9473000C94730054
:100060000C9473000C9473000C9473000C94730044
:100070000C9473000C9473000C9473000C94730034
:100080000C9473000C9473000C9473000C94730024
:100090000C9473000C9473000C9473000C94730014
:1000A0000C9473000C9473000C94730011241FBE05
:1000B000CFEFDAE0DEBFCDBF11E0A0E0B1E0E2EAD1
:1000C000F2E002C005900D92A231B107D9F721E00C
:1000D000A2E1B1E001C01D92A331B207E1F70E9495
:1000E0002F010C944F010C940000E1EEF4E03197E5
:1000F000F1F700C000009BB1907F9BB99BB18F705E
:10010000892B8BB989EF90E00197F1F700C00000CF
:100110004698E9EFF0E03197F1F700C00000469A09
:1001200089EF90E00197F1F700C000004698E9EFF1
:10013000F0E03197F1F700C000000895CF93C82F89
:1001400089EF90E00197F1F700C00000662311F0FD
:100150005C9A01C05C9889EF90E00197F1F700C0CC
:1001600000005F9889EF90E00197F1F700C0000070
:100170008C2F82958F700E94750081EE94E001971C
:10018000F1F700C000008C2F0E947500CF910895F8
:1001900060E00E949E00089561E00E949E00089524
:1001A000549A579A3E9A8AB18F608AB985EA9EE03E
:1001B0000197F1F700C0000046985C985F9880E0D6
:1001C00094E00197F1F700C0000083E00E94750001
:1001D00081EE94E00197F1F700C0000083E00E94F7
:1001E000750081EE94E00197F1F700C0000083E014
:1001F0000E94750081EE94E00197F1F700C00000C5
:1002000082E00E94750088E20E94C80010921201EC
:1002100088E00E94C800089580911201982F946090
:10022000909312018C600E94C800089581E00E94A2
:10023000C80083ED90E30197F1F700C00000089536
:10024000CF93DF93EC018881882331F021960E94BF
:10025000CC0089918111FBCFDF91CF9108950E944D
:10026000D0000E940C010E94160180E091E00E94E3
:100270002001249A2C9A2FEF89E698E121508040A2
:100280009040E1F700C000002C982FEF89E698E13C
:10029000215080409040E1F700C00000EBCFF8947F
:0202A000FFCF8E
:1002A20031323334353637383930414243444546AA
:0202B20000004A
:00000001FF
